:020000040000FA
:0400000007EF00F016
:0A0008005482DEED13F015EF15F041
:1008000000A4084C0872080908090243000201000C
:10081000C032090400000102020100052400100199
:100820000424020205240600010524010001070535
:1008300081030A000209040100020A000000070502
:100840000202400000070582024000002603440027
:1008500069006C007300680061006E0020005200A7
:1008600020004A006100790061006B006F006400A5
:1008700079002003540065007300740020005500C7
:1008800053004200200044006500760069006300C8
:1008900065001201000202000020D8040A000001D5
:0D08A0000102000104030904310D0A0000EB
:1008AE0004013205D8A45EEF04F060EF04F07AEF95
:1008BE0004F030511F0B0009D8A468EF04F06AEF62
:1008CE0004F07AEF04F00C8E030E3119D8A472EFF7
:1008DE0004F074EF04F078EF04F0010E256E7AEF59
:1008EE0004F0000E256E3251D8A480EF04F082EF92
:1008FE0004F000EF06F030511F0B020AD8A48AEF65
:10090E0004F08CEF04F000EF06F034510F0B0009E9
:10091E00D8B494EF04F096EF04F000EF06F03451E3
:10092E000F0B3F6E030E3F609FEF04F0A1EF04F03C
:10093E0000EF06F0200E2818D8A4A8EF04F0AAEFB6
:10094E0004F000EF06F00C8E34BFB0EF04F0B2EFFF
:10095E0004F0CFEF04F034510F0B3F6E3F50020DF9
:10096E006A0EF324D96E000EF420DA6EDECF44F058
:10097E00DDCF45F034510F0B3F6E406A7E0E3F24A3
:10098E00D96E000E4020DA6EDF50436EEAEF04F0AF
:10099E0034510F0B3F6E3F50020D0F0EF324D96EE4
:1009AE00000EF420DA6EDECF44F0DDCF45F0345188
:1009BE000F0B3F6E406A810E3F24D96E000E402011
:1009CE00DA6EDF50436E43B0EFEF04F0F1EF04F058
:1009DE00F9EF04F0FB0E4414446EFF0E4514456E01
:1009EE00FEEF04F0040E4410446E4550456E34BFC5
:1009FE0003EF05F005EF05F016EF05F034510F0B80
:100A0E003F6E3F50020D6A0EF324D96E000EF42095
:100A1E00DA6E44C0DEFF45C0DDFF25EF05F0345130
:100A2E000F0B3F6E3F50020D0F0EF324D96E000ECA
:100A3E00F420DA6E44C0DEFF45C0DDFF030E31192F
:100A4E00D8A42CEF05F02EEF05F068EF05F044C0AA
:100A5E00D9FF45C0DAFFDFAE37EF05F039EF05F00D
:100A6E005AEF05F034BF3EEF05F040EF05F04EEFC4
:100A7E0005F034510F0B3F6E406A7E0E3F24D96E47
:100A8E00000E4020DA6E0001DF825AEF05F034517D
:100A9E000F0B3F6E406A810E3F24D96E000E402030
:100AAE00DA6E0001DF8244C0D9FF45C0DAFF000EC6
:100ABE00DB8444C0D9FF45C0DAFF000EDB8E00EFA9
:100ACE0006F0040E4418446E4550456E44C0D9FFDE
:100ADE0045C0DAFFDFAE76EF05F078EF05F094EF64
:100AEE0005F044C0D9FF45C0DAFF7F0EDF1644C0C3
:100AFE00D9FF45C0DAFF000EDB8C000E386E050EF6
:100B0E00376E44C039F045C03AF0000E3C6E020E0E
:100B1E003B6EFEEC12F09AEF05F044C0D9FF45C0D3
:100B2E00DAFF000EDB8C040E4418446E4550456E01
:100B3E0043B2A4EF05F0A6EF05F0B1EF05F044C007
:100B4E00D9FF45C0DAFFDFAEAFEF05F0B1EF05F02C
:100B5E00E9EF05F0040134BFB7EF05F0B9EF05F08A
:100B6E00C7EF05F034510F0B3F6E406A7E0E3F24E7
:100B7E00D96E000E4020DA6E0001DF92D3EF05F041
:100B8E0034510F0B3F6E406A810E3F24D96E000E1A
:100B9E004020DA6E0001DF9244C0D9FF45C0DAFF73
:100BAE003B0EDF16000E386E050E376E44C039F060
:100BBE0045C03AF0000E3C6E020E3B6EFEEC12F09B
:100BCE00EFEF05F044C0D9FF45C0DAFF3B0EDF164C
:100BDE00040134510F0B3F6E406A700E3F24416E7C
:100BEE000F0E4020426E41C0D9FF42C0DAFFFE0E0A
:100BFE00DF1612002804D8A407EF06F009EF06F05E
:100C0E0016EF06F06DBA0EEF06F010EF06F016EFC7
:100C1E0006F0000E686E69806988020E286E68A460
:100C2E001BEF06F01DEF06F027EF06F069A422EF8A
:100C3E0006F024EF06F027EF06F068947AEC14F035
:100C4E006DA22CEF06F02EEF06F031EF06F0A19A12
:100C5E0014EF07F068A036EF06F038EF06F045EF18
:100C6E0006F069A03DEF06F03FEF06F045EF06F007
:100C7E00B1EC0AF0A08A040E286E689068A84AEFBC
:100C8E0006F04CEF06F055EF06F069A851EF06F0AE
:100C9E0053EF06F055EF06F0E8EC14F068AC5AEF9F
:100CAE0006F05CEF06F087EF06F069AC61EF06F038
:100CBE0063EF06F071EF06F0000E386E730E376EAE
:100CCE00000E396E000E3A6E000E3C6E010E3B6E3B
:100CDE00FEEC12F0689CB6EC14F02150D8B47AEF0A
:100CEE0006F07CEF06F07DEF06F021062150D8A429
:100CFE0083EF06F085EF06F087EF06F073EC10F049
:100D0E0068AA8CEF06F08EEF06F097EF06F069AA50
:100D1E0093EF06F095EF06F097EF06F0AEEC13F0BA
:100D2E0068A29CEF06F09EEF06F0B4EF06F069A203
:100D3E00A3EF06F0A5EF06F0B4EF06F07F0E386EC7
:100D4E003768000E396E000E3A6E000E3C6E010EC4
:100D5E003B6EFEEC12F0000E6A6E040E2860BAEFC7
:100D6E0006F0BCEF06F0BFEF06F0A19A14EF07F005
:100D7E0069A6C4EF06F0C6EF06F013EF07F0000EFB
:100D8E00496E68A6CDEF06F0CFEF06F013EF07F031
:100D9E006CCF29F02930E832E8320F0B236E6896BB
:100DAE0029B4DCEF06F0DEEF06F0E8EF06F07E0E7B
:100DBE002324D96EDA6A000EDA220001DF70F0EF1A
:100DCE0006F0810E2324D96EDA6A000EDA220001B3
:100DDE00DF702350D8A4F6EF06F0F8EF06F0FCEF24
:100DEE0006F05EEC11F00AEF07F0000E386E720E90
:100DFE00376E290E396E000E3A6E000E3C6E000EE6
:100E0E003B6EFEEC12F0492A030E496411EF07F017
:100E1E0013EF07F0C8EF06F0A19A1200A09A000196
:100E2E0084518511D8B41EEF07F020EF07F02EEF96
:100E3E0007F084C0D9FF85C0DAFFDFAE29EF07F0D7
:100E4E002BEF07F02EEF07F0A08AE2EF07F0030E6C
:100E5E001C18D8A435EF07F037EF07F039EF07F07D
:100E6E00000E1C6E1C50D8A43FEF07F041EF07F0A8
:100E7E0044EF07F0A08AE2EF07F0020E1C18D8A488
:100E8E004BEF07F04DEF07F060EF07F0010E9F6F8D
:100E9E00000EA06F000EA16F000EA26F020EF8ECF6
:100EAE000BF09FC084F0A0C085F0030E1C6EE1EF26
:100EBE0007F01C04D8A466EF07F068EF07F0E1EF27
:100ECE0007F0400E1B646EEF07F070EF07F074EF43
:100EDE0007F0400EAB6F76EF07F01BC0ABF0AB51D7
:100EEE001B5C1B6E000E786F050E796FABC0AAF0FF
:100EFE008951D8A485EF07F087EF07F0B3EF07F01D
:100F0E0099EF07F07BC0F6FF7CC0F7FF78C0D9FFE2
:100F1E0079C0DAFF0800F5CFDFFF784B792B7B4BDA
:100F2E007C2BAA07AA51D8A49FEF07F0A1EF07F0D8
:100F3E0089EF07F0BBEF07F07BC0F6FF7CC0F7FF31
:100F4E0078C0D9FF79C0DAFF0800F5CFDFFF784B04
:100F5E00792B7B4B7C2BAA07AA51D8A4B9EF07F0AB
:100F6E00BBEF07F0A3EF07F01B50D8A4C1EF07F0BB
:100F7E00C3EF07F0D2EF07F0400EAB19D8A4CAEFBB
:100F8E0007F0CCEF07F0D0EF07F0020E1C6ED2EF99
:100F9E0007F0030E1C6E010E9F6F000EA06F050E64
:100FAE00A16FABC0A2F0020EF8EC0BF09FC084F064
:100FBE00A0C085F0A08A12009FC0A9F0A0C0AAF020
:100FCE000001A351A411D8A4EFEF07F0F1EF07F041
:100FDE00F3EF07F09EEF08F0A9C0D9FFAAC0DAFF21
:100FEE00A1C0DFFFA351A925A56FA451AA21A66F09
:100FFE00FF0EA525D96EFF0EA621DA6EA1C0DFFF6A
:10100E00A45107E1030EA35DD8B010EF08F012EF64
:10101E0008F014EF08F09EEF08F020EE01F0A95151
:10102E00D926AA51DA22A1C0DFFF20EE02F0A95183
:10103E00D926AA51DA22A1C0DFFFA351A925A56F97
:10104E00A451AA21A66FFE0EA525D96EFF0EA621CC
:10105E00DA6EA1C0DFFFA351A925A56FA451AA2165
:10106E00A66FFD0EA525D96EFF0EA621DA6EA1C0C4
:10107E00DFFFA45107E1070EA35DD8B049EF08F0DA
:10108E004BEF08F04DEF08F09EEF08F020EE03F066
:10109E00A951D926AA51DA22A1C0DFFFA351A92551
:1010AE00A56FA451AA21A66FFC0EA525D96EFF0E21
:1010BE00A621DA6EA1C0DFFFA45107E1090EA35DE0
:1010CE00D8B06CEF08F06EEF08F070EF08F09EEFFE
:1010DE0008F0A9C0A5F0AAC0A6F0A51FA61FA54B93
:1010EE00A62B030EA515A76FA86BA751A927A8516C
:1010FE00AA23A751A35FA851A45BFC0EA317FF0E52
:10110E00A41795EF08F0A9C0D9FFAAC0DAFFA1C0B5
:10111E00DFFFA307D8A0A407A94BAA2BA351A411A4
:10112E00D8A49CEF08F09EEF08F08AEF08F01200AA
:10113E002BC035F02CC036F02F503010D8A4AAEFAB
:10114E0008F0ACEF08F0AEEF08F059EF09F035C03B
:10115E00D9FF36C0DAFF2DC0DFFF2F503524316E98
:10116E0030503620326EFF0E3124D96EFF0E3220F3
:10117E00DA6E2DC0DFFF305007E1030E2F5CD8B0C2
:10118E00CBEF08F0CDEF08F0CFEF08F059EF09F0F4
:10119E0020EE01F03550D9263650DA222DC0DFFF71
:1011AE0020EE02F03550D9263650DA222DC0DFFF60
:1011BE002F503524316E30503620326EFE0E3124D3
:1011CE00D96EFF0E3220DA6E2DC0DFFF2F50352480
:1011DE00316E30503620326EFD0E3124D96EFF0E38
:1011EE003220DA6E2DC0DFFF305007E1070E2F5C84
:1011FE00D8B004EF09F006EF09F008EF09F059EF47
:10120E0009F020EE03F03550D9263650DA222DC0E3
:10121E00DFFF2F503524316E30503620326EFC0EEB
:10122E003124D96EFF0E3220DA6E2DC0DFFF305022
:10123E0007E1090E2F5CD8B027EF09F029EF09F06E
:10124E002BEF09F059EF09F035C031F036C032F00E
:10125E00311E321E314A322A030E3114336E346A75
:10126E00335035263450362233502F5E3450305A98
:10127E00FC0E2F16FF0E301650EF09F035C0D9FFB9
:10128E0036C0DAFF2DC0DFFF2F06D8A03006354A54
:10129E00362A2F503010D8A457EF09F059EF09F025
:1012AE0045EF09F01200800E04013019D8A462EF48
:1012BE0009F064EF09F009EF0AF0C00E0C6EF0EFC2
:1012CE0009F0920E096E080E0A6E000E0E6E120EC8
:1012DE000D6E09EF0AF03251D8A478EF09F07AEFCB
:1012EE0009F0B8EF09F03251020D070EF324F66E35
:1012FE00080EF420F76E0900F5CF09F00A00F5CFBD
:10130E000AF0020E09242B6E000E0A202C6E2BC042
:10131E00F6FF2CC0F7FFF86A070EF76403D008003B
:10132E00F55005D0F6CFE1FFF7CFE2FFE7500D6E97
:10133E00030E09242B6E000E0A202C6E2BC0F6FF16
:10134E002CC0F7FFF86A070EF76403D00800F550BB
:10135E0005D0F6CFE1FFF7CFE2FFE7500E6E09EFB3
:10136E000AF0000E0C6E09EF0AF0030E3261C2EFA6
:10137E0009F0C4EF09F0E8EF09F03251020D010E49
:10138E00F324F66E080EF420F76E0900F5CF09F07F
:10139E000A00F5CF0AF009C0F6FF0AC0F7FFF86A97
:1013AE00070EF76403D00800F55005D0F6CFE1FF25
:1013BE00F7CFE2FFE7502B6E2B500D6E0E6A09EF42
:1013CE000AF0000E0C6E09EF0AF0000E0C6E09EF1B
:1013DE000AF033512B6E2C6A2C50000AD8B4FAEF57
:1013EE0009F0ECEF09F02B50010AD8B468EF09F0C0
:1013FE00030AD8B472EF09F0010AD8B4BCEF09F0B1
:10140E00ECEF09F01200A09A000E6A6E000E686EE4
:10141E00000E706E710E00019F6F0F0EA06F000E0A
:10142E00A26F000EA16F000EA46F020EA36FE3EC6D
:10143E0007F0160E6F6E9F0E6B6E7B0E696E000EB2
:10144E000001AB6FAB51040D000EF324D96E040EE8
:10145E00F420DA6EDE6ADE6ADE6ADD6AAB2B0B0E14
:10146E00AB653CEF0AF03EEF0AF029EF0AF06D8C07
:10147E00000E6E6E6D986D9C6896000E0C6E000ED2
:10148E00046E000E066E000E056E68B651EF0AF081
:10149E0053EF0AF043EF0AF0010E1F6E010E1E6E9F
:1014AE00000E00018C6F000E8B6F000E246E000E6E
:1014BE00AB6FAB51020D0F0EF324D96E000EF4205C
:1014CE00DA6E000EDE6E000EDD6EAB51020D6A0E90
:1014DE00F324D96E000EF420DA6E000EDE6E000ECE
:1014EE00DD6E810EAB25D96EDA6A000EDA22000EA1
:1014FE00DF6E7E0EAB25D96EDA6A000EDA22000E92
:10150E00DF6EAB2B020EAB658FEF0AF091EF0AF098
:10151E0060EF0AF0080E0F6E040E106E160E706E4F
:10152E00040E0401036F300E026F200E016F040EC5
:10153E00006F008F000E2A6E000E0001746F000EF9
:10154E00756F000E766F000E776F000E8A6F000EAD
:10155E00286E1200A09A000E6A6E000E686E000EC3
:10156E00706E710E2B6E0F0E2C6E000E2E6E000E08
:10157E002D6E000E306E020E2F6E9FEC08F0160EC2
:10158E006F6E9F0E6B6E7B0E696E000E376E375050
:10159E00040D000EF324D96E040EF420DA6EDE6A0A
:1015AE00DE6ADE6ADD6A372A0B0E3764E1EF0AF077
:1015BE00E3EF0AF0CEEF0AF06D8C000E6E6E6D98B2
:1015CE006D9C6896000E0C6E000E046E000E066E7C
:1015DE00000E056E68B6F6EF0AF0F8EF0AF0E8EFC7
:1015EE000AF0010E1F6E010E1E6E000E00018C6FB2
:1015FE00000E8B6F000E246E000E376E3750020DEC
:10160E000F0EF324D96E000EF420DA6E000EDE6E8D
:10161E00000EDD6E3750020D6A0EF324D96E000EE9
:10162E00F420DA6E000EDE6E000EDD6E810E3724B3
:10163E00D96EDA6A000EDA22000EDF6E7E0E3724C5
:10164E00D96EDA6A000EDA22000EDF6E372A020E2B
:10165E00376434EF0BF036EF0BF005EF0BF0080E9E
:10166E000F6E040E106E160E706E040E0401036FD4
:10167E00300E026F200E016F040E006F008F000EF1
:10168E002A6E000E0001746F000E756F000E766FDD
:10169E00000E776F000E8A6F000E286E12006D9886
:1016AE000CBE5CEF0BF05EEF0BF0A4EF0BF004AE94
:1016BE0063EF0BF065EF0BF078EF0BF0020E266E7A
:1016CE0000018B51D8A46EEF0BF070EF0BF072EFA0
:1016DE000BF0BAEC11F0000E1E6E000E1F6EF7EF3F
:1016EE000BF020EE01F01750D9261850DA22200EFA
:1016FE00DF6E20EE02F01750D9261850DA22300E87
:10170E00DE6E040EDD6E17C0D9FF18C0DAFF0C0EA8
:10171E00DF6E17C0D9FF18C0DAFF000EDB8E0FC0C8
:10172E00D9FF10C0DAFF040EDF6E0FC0D9FF10C054
:10173E00DAFF000EDB8EF7EF0BF0040130AFAAEFED
:10174E000BF0ACEF0BF0C9EF0BF0010E266E0001A3
:10175E008C51D8A4B5EF0BF0B7EF0BF0B9EF0BF03F
:10176E00BAEC11F0000E1E6E000E1F6E2050D8A4A3
:10177E00C3EF0BF0C5EF0BF0F7EF0BF073EC10F0BF
:10178E00F7EF0BF0020E266E20EE01F01750D92661
:10179E001850DA22200EDF6E20EE02F01750D926F6
:1017AE001850DA22300EDE6E040EDD6E17C0D9FF31
:1017BE0018C0DAFF040EDF6E17C0D9FF18C0DAFFAB
:1017CE00000EDB8E000E1E6E000E1F6E2050D8A473
:1017DE00F3EF0BF0F5EF0BF0F7EF0BF0C5EF0BF0AF
:1017EE0012000001A76F00019F51D8B401EF0CF059
:1017FE0003EF0CF011EF0CF0A751020D0F0EF324B6
:10180E00D96E000EF420DA6EDECFA8F0DDCFA9F08F
:10181E001DEF0CF0A751020D6A0EF324D96E000EC7
:10182E00F420DA6EDECFA8F0DDCFA9F0A851A91111
:10183E00D8A424EF0CF026EF0CF02CEF0CF0000ED9
:10184E009F6F000EA06F98EF0CF020EE02F0A851E3
:10185E00D926A951DA22A0C0DEFFA1C0DDFF20EEFD
:10186E0001F0A851D926A951DA22A2C0DFFFA8C0E3
:10187E00D9FFA9C0DAFF400EDF16A8C0D9FFA9C054
:10188E00DAFF000EDB86A8C0D9FFA9C0DAFF000E72
:10189E00DB8E9F51D8B456EF0CF058EF0CF077EF6B
:1018AE000CF0A751020D0F0EF324D96E000EF4208A
:1018BE00DA6EDECFA3F0DDCFA4F0040EA319A56F70
:1018CE00A451A66FA751020D0F0EF324D96E000E70
:1018DE00F420DA6EA5C0DEFFA6C0DDFF94EF0CF09B
:1018EE00A751020D6A0EF324D96E000EF420DA6EA3
:1018FE00DECFA3F0DDCFA4F0040EA319A56FA45183
:10190E00A66FA751020D6A0EF324D96E000EF420B5
:10191E00DA6EA5C0DEFFA6C0DDFFA8C09FF0A9C08D
:10192E00A0F0120020EE01F01950D9261A50DA223A
:10193E00DF502C6E2C50055C000E0658D8B0AAEF66
:10194E000CF0ACEF0CF0AEEF0CF005C02CF02C5000
:10195E00055E000E065A000E2B6EC5EF0CF0500EF3
:10196E002B24D96EDA6A040EDA2201C0E1FF02C01E
:10197E00E2FFDFCFE7FF014A022A2B2A2C502B5C15
:10198E00D8A0CCEF0CF0CEEF0CF0B6EF0CF005506B
:10199E000610D8B4D5EF0CF0D7EF0CF010EF0DF019
:1019AE0020EE01F01750D9261850DA22200EDF6EE5
:1019BE0020EE02F01750D9261850DA22500EDE6EA5
:1019CE00040EDD6E19C0D9FF1AC0DAFFDFBCF2EFCC
:1019DE000CF0F4EF0CF002EF0DF017C0D9FF18C0A9
:1019EE00DAFF480EDF6E17C0D9FF18C0DAFF000EFF
:1019FE00DB8E39EF0DF017C0D9FF18C0DAFF080ED5
:101A0E00DF6E17C0D9FF18C0DAFF000EDB8E39EF7C
:101A1E000DF020EE01F01750D9261850DA22200EC4
:101A2E00DF6E20EE02F01750D9261850DA22300E53
:101A3E00DE6E040EDD6E17C0D9FF18C0DAFF040E7D
:101A4E00DF6E17C0D9FF18C0DAFF000EDB8E049EC2
:101A5E002050D8A435EF0DF037EF0DF039EF0DF023
:101A6E0073EC10F01200336E2B50D8B441EF0DF022
:101A7E0043EF0DF051EF0DF03350020D0F0EF32426
:101A8E00D96E000EF420DA6EDECF34F0DDCF35F0F5
:101A9E005DEF0DF03350020D6A0EF324D96E000E79
:101AAE00F420DA6EDECF34F0DDCF35F03450351061
:101ABE00D8A464EF0DF066EF0DF06CEF0DF0000E94
:101ACE002B6E000E2C6ED8EF0DF020EE02F034507F
:101ADE00D9263550DA222CC0DEFF2DC0DDFF20EED8
:101AEE0001F03450D9263550DA222EC0DFFF34C033
:101AFE00D9FF35C0DAFF400EDF1634C0D9FF35C02E
:101B0E00DAFF000EDB8634C0D9FF35C0DAFF000ED7
:101B1E00DB8E2B50D8B496EF0DF098EF0DF0B7EF9B
:101B2E000DF03350020D0F0EF324D96E000EF4207B
:101B3E00DA6EDECF2FF0DDCF30F0040E2F18316EBF
:101B4E003050326E3350020D0F0EF324D96E000E4C
:101B5E00F420DA6E31C0DEFF32C0DDFFD4EF0DF0BF
:101B6E003350020D6A0EF324D96E000EF420DA6E95
:101B7E00DECF2FF0DDCF30F0040E2F18316E305047
:101B8E00326E3350020D6A0EF324D96E000EF4201D
:101B9E00DA6E31C0DEFF32C0DDFF34C02BF035C04F
:101BAE002CF0120004013039E832030B0009D8B4CE
:101BBE00E3EF0DF0E5EF0DF02DEF0EF066EF0EF00A
:101BCE000C8E080E286E66EF0EF05AEC09F066EFDA
:101BDE000EF0EBEC10F066EF0EF02A0E096E000E12
:101BEE000A6E0C80010E0D6E0C8E66EF0EF071EC0F
:101BFE000FF066EF0EF057EC04F066EF0EF09D0E50
:101C0E003425096E0A6A000E0A220C80010E0D6E32
:101C1E000C8E66EF0EF00C8E9D0E3425D96EDA6AA0
:101C2E00000EDA2232C4DFFF66EF0EF0000E386EC1
:101C3E00020E376E000E396E000E3A6E000E3C6EBE
:101C4E00000E3B6EFEEC12F066EF0EF03151466E5A
:101C5E00476A4750000AD8B437EF0EF066EF0EF021
:101C6E004650000AD8B4FEEF0DF0010AD8B402EFC8
:101C7E000EF0020AD8B402EF0EF0060AD8B4E7EF5F
:101C8E000DF0030AD8B4ECEF0DF0010AD8B41DEF35
:101C9E000EF00F0AD8B4F4EF0DF0010AD8B4F0EF3D
:101CAE000DF0030AD8B406EF0EF0010AD8B412EF05
:101CBE000EF0070AD8B466EF0EF066EF0EF01200C3
:101CCE00200E2B6E0E5007E1200E0D5CD8B072EF79
:101CDE000EF074EF0EF08CEF0EF00DC02BF02750BF
:101CEE00D8A47CEF0EF07EEF0EF082EF0EF0010E18
:101CFE00276E8CEF0EF02704D8A488EF0EF08AEF33
:101D0E000EF08CEF0EF0020E276E2B500D5E000EB5
:101D1E000E5A20EE01F00F50D9261050DA222BC0A9
:101D2E00DFFF500E0001866F040E876F0CB0A2EF1E
:101D3E000EF0A4EF0EF0E6EF0EF0C1EF0EF009C0BC
:101D4E00F6FF0AC0F7FFF86A86C0D9FF87C0DAFF30
:101D5E00070EF76403D00800F55005D0F6CFE1FF6B
:101D6E00F7CFE2FFE750DF6E094A0A2A0001864BE1
:101D7E00872B2B062B50D8A4C7EF0EF0C9EF0EF011
:101D8E00A6EF0EF0EEEF0EF009C0F6FF0AC0F7FF59
:101D9E00F86A86C0D9FF87C0DAFF070EF76403D052
:101DAE000800F55005D0F6CFE1FFF7CFE2FFE75080
:101DBE00DF6E094A0A2A0001864B872B2B062B5011
:101DCE00D8A4ECEF0EF0EEEF0EF0CBEF0EF012000B
:101DDE000FC0D9FF10C0DAFF000EDFBC010E2C6E53
:101DEE00040E0F180F6E1050106E080E2818D8A47F
:101DFE0003EF0FF005EF0FF017EF0FF00401325164
:101E0E007F0B6E6E6E50D8B40FEF0FF011EF0FF018
:101E1E0015EF0FF0100E286E17EF0FF0040E286E50
:101E2E002604D8A41DEF0FF01FEF0FF066EF0FF092
:101E3E0020EE02F00F50D9261050DA22500EDE6E30
:101E4E00040EDD6E67EC0EF0020E2718D8A432EFEA
:101E5E000FF034EF0FF042EF0FF00FC0D9FF10C0AC
:101E6E00DAFF040EDF6E0FC0D9FF10C0DAFF000ECE
:101E7E00DB8E70EF0FF02C50D8A448EF0FF04AEF26
:101E8E000FF058EF0FF00FC0D9FF10C0DAFF480E59
:101E9E00DF6E0FC0D9FF10C0DAFF000EDB8E70EFC1
:101EAE000FF00FC0D9FF10C0DAFF080EDF6E0FC0A3
:101EBE00D9FF10C0DAFF000EDB8E70EF0FF004AE0C
:101ECE006BEF0FF06DEF0FF06EEF0FF0049E000E44
:101EDE00266E1200000E0401506F000E516FC9EFF6
:101EEE000FF00C8E2504D8A47FEF0FF081EF0FF0CA
:101EFE00E3EF0FF05083E3EF0FF00C8EE3EF0FF0F4
:101F0E000C8E34BF8DEF0FF08FEF0FF0A0EF0FF0B0
:101F1E0034510F0B2B6E2B50020D6A0EF324D96E1B
:101F2E00000EF420DA6EDECF2DF0DDCF2EF0AFEF07
:101F3E000FF034510F0B2B6E2B50020D0F0EF3249E
:101F4E00D96E000EF420DA6EDECF2DF0DDCF2EF03E
:101F5E002DC0D9FF2EC0DAFFDFAEB8EF0FF0BAEF0B
:101F6E000FF0E3EF0FF02DC0D9FF2EC0DAFFDFA484
:101F7E00C3EF0FF0C5EF0FF0E3EF0FF0010E506F50
:101F8E00E3EF0FF030511F0B2B6E2C6A2C50000A12
:101F9E00D8B4D4EF0FF0E3EF0FF02B50000AD8B403
:101FAE0078EF0FF0010AD8B484EF0FF0030AD8B41B
:101FBE0087EF0FF0E3EF0FF00CAEE8EF0FF0EAEF64
:101FCE000FF0F1EF0FF0500E096E040E0A6E0C803A
:101FDE00020E0D6E1200040130511F0BE806D8B42C
:101FEE00FBEF0FF0FDEF0FF0FFEF0FF072EF10F0C1
:101FFE003039E832030BE806D8B408EF10F00AEFD8
:10200E0010F00CEF10F072EF10F03451D8B412EF54
:10201E0010F014EF10F051EF10F03405D8B41AEFA1
:10202E0010F01CEF10F051EF10F072EF10F08E0E5A
:10203E00096E000E0A6E000E0E6E080E0D6E0C80EE
:10204E000C8E72EF10F08E0E096E000E0A6E0C8E54
:10205E0072EF10F036C405F037C406F0960E016E1E
:10206E00000E026E000E076E000E086E048E72EFEA
:10207E0010F0960E096E000E0A6E000E0E6E070E12
:10208E000D6EC10E0C6E72EF10F032C488F00C8E15
:10209E0072EF10F031512B6E2C6A2C50000AD8B40E
:1020AE005BEF10F072EF10F02B50000AD8B41EEF59
:1020BE0010F0010AD8B42AEF10F0210AD8B431EF8B
:1020CE0010F0010AD8B440EF10F0030AD8B44CEF68
:1020DE0010F072EF10F012001F50D8A479EF10F02C
:1020EE007BEF10F0EAEF10F0010E1F6E1E50D8A419
:1020FE0083EF10F085EF10F0EAEF10F0010E1E6E78
:10210E00020E2618D8A48EEF10F090EF10F0A6EF66
:10211E0010F020EE01F00F50D9261050DA22000EEA
:10212E00DF6E0FC0D9FF10C0DAFF480EDF6E0FC092
:10213E00D9FF10C0DAFF000EDB8EEAEF10F0260496
:10214E00D8A4ACEF10F0AEEF10F0EAEF10F0000EE6
:10215E00226E20EE01F01950D9261A50DA22200EE6
:10216E00DF6E20EE02F01950D9261A50DA22300E08
:10217E00DE6E040EDD6E19C0D9FF1AC0DAFF040E32
:10218E00DF6E19C0D9FF1AC0DAFF000EDB8E010E0A
:10219E00226E20EE01F01750D9261850DA22200EAA
:1021AE00DF6E20EE02F01750D9261850DA22300ECC
:1021BE00DE6E040EDD6E17C0D9FF18C0DAFF800E7A
:1021CE00DF6EEAEF10F012000C8E710E2B6E0F0EFA
:1021DE002C6E000E2E6E000E2D6E000E306E020E48
:1021EE002F6E9FEC08F0000E2B6E040E2C6E000E60
:1021FE002E6E000E2D6E000E306E300E2F6E9FEC7A
:10220E0008F06D8C000E3F6E810E3F24D96EDA6A97
:10221E00000EDA22000EDF6E7E0E3F24D96EDA6AD1
:10222E00000EDA22000EDF6E3F2A020E3F6422EF0E
:10223E0011F024EF11F00BEF11F09D0E2B6E000E2E
:10224E002C6E000E2E6E000E2D6E000E306E020ED7
:10225E002F6E9FEC08F06D9C080E0F6E040E106E24
:10226E00000E196E040E1A6E19C017F01AC018F06F
:10227E0032C42AF02A50D8A447EF11F049EF11F0DA
:10228E004DEF11F0100E286E5DEF11F0000E386E4E
:10229E00010E376E2A0E396E000E3A6E000E3C6E2F
:1022AE00010E3B6EFEEC12F0200E286E12002D0E6B
:1022BE00216E29C048F0FD0E4816D8A469EF11F022
:1022CE006BEF11F0ADEF11F029C048F0D890483205
:1022DE003F0E48164850040D000EF324196E040EDE
:1022EE00F4201A6E19C017F01AC018F0040E171841
:1022FE00176E1850186E19C0D9FF1AC0DAFFDF30EA
:10230E00E8320F0B0D0AD8A48FEF11F091EF11F0F8
:10231E00A9EF11F0300E2B6E040E2C6E20EE02F093
:10232E001950D9261A50DA22DECF2DF0DDCF2EF03D
:10233E00000E306E080E2F6E0BEC14F0B6EC12F091
:10234E00B9EF11F042EC13F0B9EF11F02950FD0B7B
:10235E00040AD8A4B5EF11F0B7EF11F0B9EF11F0F0
:10236E00EFEC0EF01200000E00018C6F000E8B6F62
:10237E00020E2618D8A4C6EF11F0C8EF11F0E8EF40
:10238E0011F020EE01F01750D9261850DA22200E47
:10239E00DF6E20EE02F01750D9261850DA22500EBA
:1023AE00DE6E040EDD6E17C0D9FF18C0DAFF480EC0
:1023BE00DF6E17C0D9FF18C0DAFF000EDB8E10EFEC
:1023CE0012F00D500401365D0E503759D8B0F2EFB1
:1023DE0011F0F4EF11F0F8EF11F036C40DF037C430
:1023EE000EF067EC0EF020EE02F00F50D9261050D2
:1023FE00DA22500EDE6E040EDD6E0FC0D9FF10C055
:10240E00DAFF480EDF6E0FC0D9FF10C0DAFF000EE4
:10241E00DB8E1200306E000E316E040E326E2B50BB
:10242E002C6E2D6AD8902C362D3630502E6E2F6A8B
:10243E00D8902E362F36D8902E362F362C502E265C
:10244E002D502F22D8902E362F36D8902E362F364E
:10245E002E5031262F50322231C0D9FF32C0DAFF32
:10246E00DF9E2B50D8A43EEF12F040EF12F04EEF4D
:10247E0012F03050020D6A0EF324D96E000EF420C5
:10248E00DA6E31C0DEFF32C0DDFF5AEF12F030508F
:10249E00020D0F0EF324D96E000EF420DA6E31C049
:1024AE00DEFF32C0DDFF31C0D9FF32C0DAFFDF9C64
:1024BE0020EE04F03150D9263250DA22DF8C120091
:1024CE000F0EC16E9380000E956E000E926E010E71
:1024DE00806E000E836E28EC15F0000E0001AD6FBD
:1024EE008150010B8D6F9C0E0001AC6FD70EE82E44
:1024FE00FED7AC2FFCD70001AD518D19D8B48AEFA1
:10250E0012F08CEF12F0B0EF12F08DC0ADF08D51D5
:10251E00D8B494EF12F096EF12F0AFEF12F0770EF0
:10252E00836E9AEC14F00009D8B4A0EF12F0A2EF6B
:10253E0012F0ABEF12F0A80E00019F6F080EA06F05
:10254E00030EA16FFFEC14F015EC07F0B0EF12F0D4
:10255E00836A15EC07F077EF12F007EF00F0000E2C
:10256E00276E000E206E000E00018C6F000E8B6F1A
:10257E00000E226E000E266E0FC0D9FF10C0DAFFBD
:10258E007F0EDF16040E0F180F6E1050106E0FC058
:10259E00D9FF10C0DAFF7F0EDF16040E0F180F6E74
:1025AE001050106E17C0D9FF18C0DAFF7F0EDF165D
:1025BE00000E0C6E000E0E6E000E0D6E000E046EF2
:1025CE00000E066E000E056ED9EC0DF0000E386E84
:1025DE00030E376E000E396E000E3A6E000E3C6E14
:1025EE00000E3B6EFEEC12F056EC0BF0120008EFF4
:1025FE0013F07CEC13F041EF13F0F2EC0FF041EF1F
:10260E0013F037C03DF038C03EF03E50000AD8B44B
:10261E0017EF13F07F0AD8B43AEF13F041EF13F02F
:10262E003D50010AD8B400EF13F0030AD8B441EFBD
:10263E0013F0010AD8B404EF13F0060AD8B441EF30
:10264E0013F0770AD8B441EF13F0010AD8B441EF72
:10265E0013F0070AD8B441EF13F0010AD8B441EFD2
:10266E0013F041EF13F03D50FF0AD8B441EF13F0D1
:10267E0041EF13F01200020E2618D8A449EF13F002
:10268E004BEF13F04FEF13F099EC0CF07BEF13F0D0
:10269E00000E266E2250D8A457EF13F059EF13F008
:1026AE0079EF13F020EE01F01750D9261850DA22E8
:1026BE00200EDF6E20EE02F01750D9261850DA22C7
:1026CE00300EDE6E040EDD6E17C0D9FF18C0DAFFB5
:1026DE000C0EDF6E17C0D9FF18C0DAFF000EDB8EAE
:1026EE007BEF13F0000E226E1200000E0001966FAB
:1026FE004B0E976F000E986F000E996F000E9A6F2B
:10270E00000E9B6F080E9C6F000E1D6E1A0E336E20
:10271E00010E33EC14F01E0E336E020E33EC14F079
:10272E00000E2B6E400E2C6E050E2D6E400E2E6E74
:10273E00020E3AEC0DF02BC015F02CC016F0000E68
:10274E000001846F000E856F000E1C6E120070A0CB
:10275E00B3EF13F0B5EF13F0DCEF13F019C0D9FFA0
:10276E001AC0DAFF800EDE18D8A4C0EF13F0C2EF45
:10277E0013F0DBEF13F00FC0D9FF10C0DAFF840E99
:10278E00DE18D8A4CDEF13F0CFEF13F0DBEF13F07C
:10279E0019C0D9FF1AC0DAFF0C0EDF6E19C0D9FFAF
:1027AE001AC0DAFF000EDB8E7090689A12000600D7
:1027BE00E1CF4AF0E2CF4BF0D9CF4CF0DACF4DF06B
:1027CE00F3CF4EF0F4CF4FF0F6CF50F0F7CF51F0ED
:1027DE00F8CF52F0F5CF53F0D0EC14F053C0F5FF14
:1027EE0052C0F8FF51C0F7FF50C0F6FF4FC0F4FFC4
:1027FE004EC0F3FF4DC0DAFF4CC0D9FF4BC0E2FF15
:10280E004AC0E1FF549211002DC033F02EC034F0B7
:10281E002BC031F02CC032F025EF14F033C0D9FFAD
:10282E0034C0DAFFDF50356E334A342A31C0D9FF57
:10283E0032C0DAFF35C0DFFF314A322A2F06D8A068
:10284E0030062F2806E13028D8A430EF14F032EFEE
:10285E0014F015EF14F01200366E33A439EF14F0A5
:10286E003BEF14F040EF14F0000E2B6E365011ECCF
:10287E0012F033A245EF14F047EF14F04CEF14F0C2
:10288E00010E2B6E365011EC12F0700E3624346E93
:10289E00356A0F0E352234C0D9FF35C0DAFF33C08A
:1028AE00DFFF12002850D8A45FEF14F061EF14F090
:1028BE0079EF14F0000E6D6E000E696E160E6F6ECF
:1028CE009F0E6B6E7B0E696EA28AA08A70EF14F05B
:1028DE006D866DA675EF14F077EF14F06FEF14F0B0
:1028EE00010E286E1200000E246E000E386E740E4D
:1028FE00376E000E396E000E3A6E000E3C6E000EF4
:10290E003B6EFEEC12F06D9269948FEF14F06894AA
:10291E0068B494EF14F096EF14F08EEF14F0000EEE
:10292E0000018A6F12001F0E2864A0EF14F0A2EFB0
:10293E0014F0AFEF14F06DB2A7EF14F0A9EF14F08E
:10294E00AFEF14F0000E0001A06F9F69B4EF14F00A
:10295E00000E0001A06F000E9F6F9F511200010E1E
:10296E0000017427000E7523762377232450D8A4F4
:10297E00C3EF14F0C5EF14F0CFEF14F08A2B8A5189
:10298E00D8A4CCEF14F0CEEF14F0CFEF14F08A6988
:10299E001200F2ACD5EF14F0D7EF14F0E7EF14F00D
:1029AE00A0AADCEF14F0DEEF14F0E7EF14F0A1AA0A
:1029BE00E3EF14F0E5EF14F0E7EF14F001EC06F09E
:1029CE001200698468986D82010E246E000E00015B
:1029DE008A6F000E386E750E376E000E396E000E51
:1029EE003A6E000E3C6E000E3B6EFEEC12F01200C4
:1029FE00A09A1C50D8A406EF15F008EF15F013EFAF
:102A0E0015F09FC07BF0A0C07CF0A1C01BF0010EA2
:102A1E000001896F010E1C6EA08A120000EE60F09C
:102A2E003F0EEE6AE806FDE100EE01F02A0EEE6AB8
:102A3E00E806FDE154905492000EF86E000167EF27
:102A4E0012F0F28EF28C0AEC0AF059EC14F012002D
:020000040020DA
:08000000FFFFFFFFFFFFFFFF00
:020000040030CA
:0E000000210E391EFF8381FF0FC00FE00F405D
:00000001FF
