:020000040000FA
:0400000007EF00F016
:0A000800538281ED13F08EEF17F024
:10080000003F065B4F666D7D077F6FAE0856087C24
:1008100008130809024300020100C0320904000065
:100820000102020100052400100104240202052433
:100830000600010524010001070581030A000209E1
:10084000040100020A000000070502024000000740
:100850000582024000002603440069006C0073001A
:10086000680061006E002000520020004A00610014
:10087000790061006B006F00640079002003540070
:1008800065007300740020005500530042002000F2
:1008900044006500760069006300650012010002F3
:1008A00002000020D8040A00000101020001040334
:0708B0000904310D0A0000EC
:1008B80004013205D8A463EF04F065EF04F081EF7A
:1008C80004F030511F0B0009D8A46DEF04F06FEF4E
:1008D80004F081EF04F000016B8F030E040131195D
:1008E800D8A479EF04F07BEF04F07FEF04F0010E59
:1008F800436E81EF04F0000E436E3251D8A487EFA7
:1009080004F089EF04F009EF06F030511F0B020ADA
:10091800D8A491EF04F093EF04F009EF06F03451F6
:100928000F0B0009D8B49BEF04F09DEF04F009EF1A
:1009380006F034510F0B156E030E1560A6EF04F088
:10094800A8EF04F009EF06F0200E4618D8A4AFEF80
:1009580004F0B1EF04F009EF06F000016B8F040119
:1009680034BFB9EF04F0BBEF04F0D8EF04F0345112
:100978000F0B156E1550020D740EF324D96E000E70
:10098800F420DA6EDECF1AF0DDCF1BF034510F0BF6
:10099800156E166A840E1524D96E000E1620DA6EAE
:1009A800DF50196EF3EF04F034510F0B156E15502C
:1009B800020D6E0EF324D96E000EF420DA6EDECF2F
:1009C8001AF0DDCF1BF034510F0B156E166A870E27
:1009D8001524D96E000E1620DA6EDF50196E19B084
:1009E800F8EF04F0FAEF04F002EF05F0FB0E1A142A
:1009F8001A6EFF0E1B141B6E07EF05F0040E1A107B
:100A08001A6E1B501B6E34BF0CEF05F00EEF05F08D
:100A18001FEF05F034510F0B156E1550020D740EB3
:100A2800F324D96E000EF420DA6E1AC0DEFF1BC064
:100A3800DDFF2EEF05F034510F0B156E1550020D2A
:100A48006E0EF324D96E000EF420DA6E1AC0DEFFA3
:100A58001BC0DDFF030E3119D8A435EF05F037EFC1
:100A680005F071EF05F01AC0D9FF1BC0DAFFDFAE41
:100A780040EF05F042EF05F063EF05F034BF47EFB4
:100A880005F049EF05F057EF05F034510F0B156EDF
:100A9800166A840E1524D96E000E1620DA6E00012F
:100AA800DF8263EF05F034510F0B156E166A870E5F
:100AB8001524D96E000E1620DA6E0001DF821AC0E6
:100AC800D9FF1BC0DAFF000EDB841AC0D9FF1BC098
:100AD800DAFF000EDB8E09EF06F0040E1A181A6E04
:100AE8001B501B6E1AC0D9FF1BC0DAFFDFAE7FEFA9
:100AF80005F081EF05F09DEF05F01AC0D9FF1BC086
:100B0800DAFF7F0EDF161AC0D9FF1BC0DAFF000E0E
:100B1800DB8C000E0E6E050E0D6E1AC00FF01BC09A
:100B280010F0000E126E020E116E96EC15F0A3EF87
:100B380005F01AC0D9FF1BC0DAFF000EDB8C040ECB
:100B48001A181A6E1B501B6E19B2ADEF05F0AFEFF5
:100B580005F0BAEF05F01AC0D9FF1BC0DAFFDFAE07
:100B6800B8EF05F0BAEF05F0F2EF05F0040134BF75
:100B7800C0EF05F0C2EF05F0D0EF05F034510F0BD0
:100B8800156E166A840E1524D96E000E1620DA6EBC
:100B98000001DF92DCEF05F034510F0B156E166A79
:100BA800870E1524D96E000E1620DA6E0001DF922A
:100BB8001AC0D9FF1BC0DAFF3B0EDF16000E0E6EFF
:100BC800050E0D6E1AC00FF01BC010F0000E126E4D
:100BD800020E116E96EC15F0F8EF05F01AC0D9FF69
:100BE8001BC0DAFF3B0EDF16040134510F0B156EE4
:100BF800166A700E1524176E0F0E1620186E17C081
:100C0800D9FF18C0DAFFFE0EDF1612000F0EC16EF4
:100C1800070EB46E93809494000E956E000E926E3B
:100C2800040E806E000E836E040E896E010EF66E41
:100C3800080EF76E0800F5CF8CFF8B94070E0001A5
:100C4800AF6F170EAE6F6A0EE82EFED7AE2FFCD729
:100C5800AF2FFAD700F018EC18F03DEF06F087EC4C
:100C680008F09C0E0001AE6FD70EE82EFED7AE2F0F
:100C7800FCD772EC17F00009D8B445EF06F047EF3F
:100C880006F033EF06F0F28CF28E1FEC18F0000E2F
:100C980001014A6F000E506F87EC08F08EC0A8F073
:100CA8008FC0A9F053EC0FF0000E81B0010E0001C7
:100CB800936F01014A5100019319D8B466EF06F009
:100CC80068EF06F087EF06F093C04AF19351D8B465
:100CD80070EF06F072EF06F087EF06F072EC17F08F
:100CE8000009D8B47AEF06F07CEF06F087EF06F03B
:100CF800B20E00019C6F080E9D6F030E9E6FD8EC1C
:100D080017F087EC08F072EC17F00009D8B48FEFF1
:100D180006F091EF06F050EF06F0000E0001A76F05
:100D2800010EA86F400EA96FE6EC13F001014D6F9C
:100D38004D51D8B4A2EF06F0A4EF06F050EF06F03C
:100D4800000E516F66EF07F0000E5125D96EDA6A72
:100D5800010EDA22420EDE18D8A4B5EF06F0B7EF7E
:100D680006F0BFEF06F0010E476E000E366E000E5D
:100D7800356E65EF07F0000E5125D96EDA6A010E5F
:100D8800DA22530EDE18D8A4CCEF06F0CEEF06F028
:100D9800E5EF06F0000E506F000E4F6F400E4F2526
:100DA800D96EDA6A010EDA22000EDF6E4F2B090EB9
:100DB8004F65E1EF06F0E3EF06F0D2EF06F065EFDE
:100DC80007F0000E5125D96EDA6A010EDA222F0ECD
:100DD800DF64F1EF06F0F3EF06F012EF07F0000E14
:100DE8005125D96EDA6A010EDA223A0EDF60FFEF7A
:100DF80006F001EF07F012EF07F0000E5125D96E4B
:100E0800DA6A010EDA22400E5025E16EE26A010E1E
:100E1800E222DFCFE7FF502B65EF07F0000E5125E8
:100E2800D96EDA6A010EDA220A0EDE18D8A41FEF8C
:100E380007F021EF07F065EF07F05051D8B427EF1E
:100E480007F029EF07F065EF07F0000E4C6F000E72
:100E58004B6F000E4E6F54EF07F04BC19CF04CC126
:100E68009DF0000E00019F6F0A0E9E6F04EC18F0B3
:100E7800400E01014E25D96EDA6A010EDA22DF50E2
:100E88000001AE6FAE519C27000E9D23D00E9C250D
:100E980001014B6FFF0E00019D2101014C6F4E2B8C
:100EA80050514E5DD8A05BEF07F05DEF07F031EFD2
:100EB80007F04BC18EF04CC18FF0000E506F65EFFC
:100EC80007F0512B4D51515DD8A06DEF07F06FEF32
:100ED80007F0A8EF06F050EF06F007EF00F0460421
:100EE800D8A479EF07F07BEF07F088EF07F06DBA29
:100EF80080EF07F082EF07F088EF07F0000E686ECA
:100F080069806988020E466E68A48DEF07F08FEF3E
:100F180007F099EF07F069A494EF07F096EF07F050
:100F280099EF07F0689453EC17F06DA29EEF07F065
:100F3800A0EF07F0A3EF07F0A19A86EF08F068A0EA
:100F4800A8EF07F0AAEF07F0B7EF07F069A0AFEF37
:100F580007F0B1EF07F0B7EF07F02BEC0CF0A08A21
:100F6800040E466E689068A8BCEF07F0BEEF07F065
:100F7800C7EF07F069A8C3EF07F0C5EF07F0C7EFA1
:100F880007F0EEEC17F068ACCCEF07F0CEEF07F007
:100F9800F9EF07F069ACD3EF07F0D5EF07F0E3EF0F
:100FA80007F0000E0E6E730E0D6E000E0F6E000E23
:100FB800106E000E126E010E116E96EC15F0689C04
:100FC800A7EC17F03F50D8B4ECEF07F0EEEF07F0BE
:100FD800EFEF07F03F063F50D8A4F5EF07F0F7EF23
:100FE80007F0F9EF07F093EC12F068AAFEEF07F0AC
:100FF80000EF08F009EF08F069AA05EF08F007EF1D
:1010080008F009EF08F0B4EC16F068A20EEF08F04B
:1010180010EF08F026EF08F069A215EF08F017EFB7
:1010280008F026EF08F07F0E0E6E0D68000E0F6EAA
:10103800000E106E000E126E010E116E96EC15F079
:10104800000E6A6E040E46602CEF08F02EEF08F0D2
:1010580031EF08F0A19A86EF08F069A636EF08F09C
:1010680038EF08F085EF08F0000E1F6E68A63FEF16
:1010780008F041EF08F085EF08F06CCF51F05130DF
:10108800E832E8320F0B416E689651B44EEF08F023
:1010980050EF08F05AEF08F0840E4124D96EDA6A4E
:1010A800000EDA220001DF7062EF08F0870E41249B
:1010B800D96EDA6A000EDA220001DF704150D8A436
:1010C80068EF08F06AEF08F06EEF08F042EC14F0F1
:1010D8007CEF08F0000E0E6E720E0D6E510E0F6E44
:1010E800000E106E000E126E000E116E96EC15F0CA
:1010F8001F2A030E1F6483EF08F085EF08F03AEF0C
:1011080008F0A19A1200A09A00018A518B11D8B454
:1011180090EF08F092EF08F0A0EF08F08AC0D9FF2E
:101128008BC0DAFFDFAE9BEF08F09DEF08F0A0EF71
:1011380008F0A08A54EF09F0030E3818D8A4A7EFD6
:1011480008F0A9EF08F0ABEF08F0000E386E385041
:10115800D8A4B1EF08F0B3EF08F0B6EF08F0A08A12
:1011680054EF09F0020E3818D8A4BDEF08F0BFEF0D
:1011780008F0D2EF08F0010E9C6F000E9D6F000E74
:101188009E6F000E9F6F020E72EC0DF09CC08AF0ED
:101198009DC08BF0030E386E53EF09F03804D8A4C5
:1011A800D8EF08F0DAEF08F053EF09F0400E916538
:1011B800E0EF08F0E2EF08F0E6EF08F0400EA86F65
:1011C800E8EF08F091C0A8F0A851915D916F000E6A
:1011D8007E6F050E7F6FA8C0A7F09051D8A4F7EFD7
:1011E80008F0F9EF08F025EF09F00BEF09F081C0DE
:1011F800F6FF82C0F7FF7EC0D9FF7FC0DAFF080084
:10120800F5CFDFFF7E4B7F2B814B822BA707A751A2
:10121800D8A411EF09F013EF09F0FBEF08F02DEF58
:1012280009F081C0F6FF82C0F7FF7EC0D9FF7FC0FA
:10123800DAFF0800F5CFDFFF7E4B7F2B814B822B37
:10124800A707A751D8A42BEF09F02DEF09F015EF48
:1012580009F09151D8A433EF09F035EF09F044EFC4
:1012680009F0400EA819D8A43CEF09F03EEF09F0A8
:1012780042EF09F0020E386E44EF09F0030E386EA3
:10128800010E9C6F000E9D6F050E9E6FA8C09FF00B
:10129800020E72EC0DF09CC08AF09DC08BF0A08A03
:1012A80012009CC0A6F09DC0A7F00001A051A1119A
:1012B800D8A461EF09F063EF09F065EF09F010EFCA
:1012C8000AF0A6C0D9FFA7C0DAFF9EC0DFFFA05171
:1012D800A625A26FA151A721A36FFF0EA225D96E43
:1012E800FF0EA321DA6E9EC0DFFFA15107E1030EB6
:1012F800A05DD8B082EF09F084EF09F086EF09F01D
:1013080010EF0AF020EE01F0A651D926A751DA22F3
:101318009EC0DFFF20EE02F0A651D926A751DA229F
:101328009EC0DFFFA051A625A26FA151A721A36FE0
:10133800FE0EA225D96EFF0EA321DA6E9EC0DFFF36
:10134800A051A625A26FA151A721A36FFD0EA2252A
:10135800D96EFF0EA321DA6E9EC0DFFFA15107E10F
:10136800070EA05DD8B0BBEF09F0BDEF09F0BFEFE5
:1013780009F010EF0AF020EE03F0A651D926A75184
:10138800DA229EC0DFFFA051A625A26FA151A72196
:10139800A36FFC0EA225D96EFF0EA321DA6E9EC0A4
:1013A800DFFFA15107E1090EA05DD8B0DEEF09F01B
:1013B800E0EF09F0E2EF09F010EF0AF0A6C0A2F0A2
:1013C800A7C0A3F0A21FA31FA24BA32B030EA21515
:1013D800A46FA56BA451A627A551A723A451A05F6C
:1013E800A551A15BFC0EA017FF0EA11707EF0AF08D
:1013F800A6C0D9FFA7C0DAFF9EC0DFFFA007D8A00C
:10140800A107A64BA72BA051A111D8A40EEF0AF053
:1014180010EF0AF0FCEF09F0120001C00BF002C057
:101428000CF005500610D8A41CEF0AF01EEF0AF0C5
:1014380020EF0AF0CBEF0AF00BC0D9FF0CC0DAFF9F
:1014480003C0DFFF05500B24076E06500C20086E02
:10145800FF0E0724D96EFF0E0820DA6E03C0DFFFE7
:10146800065007E1030E055CD8B03DEF0AF03FEFE8
:101478000AF041EF0AF0CBEF0AF020EE01F00B5032
:10148800D9260C50DA2203C0DFFF20EE02F00B5001
:10149800D9260C50DA2203C0DFFF05500B24076E53
:1014A80006500C20086EFE0E0724D96EFF0E082089
:1014B800DA6E03C0DFFF05500B24076E06500C20C0
:1014C800086EFD0E0724D96EFF0E0820DA6E03C0E1
:1014D800DFFF065007E1070E055CD8B076EF0AF08B
:1014E80078EF0AF07AEF0AF0CBEF0AF020EE03F07B
:1014F8000B50D9260C50DA2203C0DFFF05500B240D
:10150800076E06500C20086EFC0E0724D96EFF0EDD
:101518000820DA6E03C0DFFF065007E1090E055CFC
:10152800D8B099EF0AF09BEF0AF09DEF0AF0CBEFE5
:101538000AF00BC007F00CC008F0071E081E074A87
:10154800082A030E0714096E0A6A09500B260A5066
:101558000C220950055E0A50065AFC0E0516FF0EAD
:101568000616C2EF0AF00BC0D9FF0CC0DAFF03C0A1
:10157800DFFF0506D8A006060B4A0C2A0550061000
:10158800D8A4C9EF0AF0CBEF0AF0B7EF0AF01200BF
:10159800800E04013019D8A4D4EF0AF0D6EF0AF06F
:1015A80085EF0BF0C00E00016B6F6BEF0BF09C0E1C
:1015B8000001686F080E696F000E6D6F120E6C6F78
:1015C80085EF0BF03251D8A4ECEF0AF0EEEF0AF0F9
:1015D8002FEF0BF03251020D110EF324F66E080EA8
:1015E800F420F76E0900F5CF68F00A00F5CF69F02E
:1015F800020E00016825016E000E6921026E01C00D
:10160800F6FF02C0F7FFF86A070EF76403D0080078
:10161800F55005D0F6CFE1FFF7CFE2FFE750000124
:101628006C6F030E6825016E000E6921026E01C001
:10163800F6FF02C0F7FFF86A070EF76403D0080048
:10164800F55005D0F6CFE1FFF7CFE2FFE7500001F4
:101658006D6F85EF0BF0000E00016B6F85EF0BF0DF
:10166800030E32613AEF0BF03CEF0BF061EF0BF039
:101678003251020D0B0EF324F66E080EF420F76EAD
:101688000900F5CF68F00A00F5CF69F068C0F6FFE9
:1016980069C0F7FFF86A070EF76403D00800F55031
:1016A80005D0F6CFE1FFF7CFE2FFE750016E01501A
:1016B80000016C6F6D6B85EF0BF0000E00016B6F16
:1016C80085EF0BF0000E00016B6F85EF0BF0040146
:1016D8003351016E026A0250000AD8B476EF0BF05B
:1016E80066EF0BF00150010AD8B4DBEF0AF0030AE9
:1016F800D8B4E6EF0AF0010AD8B434EF0BF066EF7D
:101708000BF01200A09A000E6A6E000E686E000EB2
:10171800706E710E00019C6F0F0E9D6F000E9F6F13
:10172800000E9E6F000EA16F020EA06F55EC09F01F
:10173800160E6F6E9F0E6B6E7B0E696E000E0001AB
:10174800A86FA851040D000EF324D96E040EF420DE
:10175800DA6EDE6ADE6ADE6ADD6AA82B0B0EA86521
:10176800B8EF0BF0BAEF0BF0A5EF0BF06D8C000E95
:101778006E6E6D986D9C6896000E6B6F000E636FB1
:10178800000E656F000E646F68B6CDEF0BF0CFEFFB
:101798000BF0BFEF0BF0010E3D6E010E3C6E000E1C
:1017A8003B6E000E3A6E000E426E000EA86FA851F6
:1017B800020D6E0EF324D96E000EF420DA6E000EC0
:1017C800DE6E000EDD6EA851020D740EF324D96E84
:1017D800000EF420DA6E000EDE6E000EDD6E870E4F
:1017E800A825D96EDA6A000EDA22000EDF6E840EA2
:1017F800A825D96EDA6A000EDA22000EDF6EA82B51
:10180800020EA8650AEF0CF00CEF0CF0DBEF0BF002
:10181800080E6E6F040E6F6F160E706E040E0401C4
:10182800036F300E026F200E016F040E006F008FE1
:10183800000E526E000E2B6E000E2C6E000E2D6EDA
:10184800000E2E6E000E396E000E466E1200A09A23
:10185800000E6A6E000E686E000E706E710E016EDC
:101868000F0E026E000E046E000E036E000E066E62
:10187800020E056E11EC0AF0160E6F6E9F0E6B6E5F
:101888007B0E696E000E0D6E0D50040D000EF324D4
:10189800D96E040EF420DA6EDE6ADE6ADE6ADD6A6C
:1018A8000D2A0B0E0D645BEF0CF05DEF0CF048EFAA
:1018B8000CF06D8C000E6E6E6D986D9C6896000E27
:1018C80000016B6F000E636F000E656F000E646F92
:1018D80068B671EF0CF073EF0CF062EF0CF0010ECC
:1018E8003D6E010E3C6E000E3B6E000E3A6E000E11
:1018F800426E000E0D6E0D50020D6E0EF324D96E61
:10190800000EF420DA6E000EDE6E000EDD6E0D5055
:10191800020D740EF324D96E000EF420DA6E000E58
:10192800DE6E000EDD6E870E0D24D96EDA6A000EAB
:10193800DA22000EDF6E840E0D24D96EDA6A000EEC
:10194800DA22000EDF6E0D2A020E0D64AEEF0CF0E7
:10195800B0EF0CF07FEF0CF0080E00016E6F040E74
:101968006F6F160E706E040E0401036F300E026F57
:10197800200E016F040E006F008F000E526E000ED5
:101988002B6E000E2C6E000E2D6E000E2E6E000EAD
:10199800396E000E466E120020EE01F03350D92643
:1019A8003450DA22DF50026E02500001645D000EEE
:1019B8006559D8B0E2EF0CF0E4EF0CF0E6EF0CF06C
:1019C80064C002F00250645F000E655B000E016E99
:1019D800FDEF0CF0500E0124D96EDA6A040EDA22FB
:1019E80060C0E1FF61C0E2FFDFCFE7FF604B612B22
:1019F800012A0250015CD8A004EF0DF006EF0DF0AB
:101A0800EEEF0CF064516511D8B40DEF0DF00FEF47
:101A18000DF048EF0DF020EE01F03150D92632508C
:101A2800DA22200EDF6E20EE02F03150D926325035
:101A3800DA22500EDE6E040EDD6E33C0D9FF34C0DC
:101A4800DAFFDFBC2AEF0DF02CEF0DF03AEF0DF0C6
:101A580031C0D9FF32C0DAFF480EDF6E31C0D9FF7E
:101A680032C0DAFF000EDB8E71EF0DF031C0D9FF06
:101A780032C0DAFF080EDF6E31C0D9FF32C0DAFF9C
:101A8800000EDB8E71EF0DF020EE01F03150D926FB
:101A98003250DA22200EDF6E20EE02F03150D926C5
:101AA8003250DA22300EDE6E040EDD6E31C0D9FF00
:101AB80032C0DAFF040EDF6E31C0D9FF32C0DAFF60
:101AC800000EDB8E639F3E50D8A46DEF0DF06FEFD4
:101AD8000DF071EF0DF093EC12F012000001A46FFD
:101AE80000019C51D8B47BEF0DF07DEF0DF08BEF2A
:101AF8000DF0A451020D6E0EF324D96E000EF420E1
:101B0800DA6EDECFA5F0DDCFA6F097EF0DF0A45189
:101B1800020D740EF324D96E000EF420DA6EDECFB7
:101B2800A5F0DDCFA6F0A551A611D8A49EEF0DF023
:101B3800A0EF0DF0A6EF0DF0000E9C6F000E9D6F4C
:101B480012EF0EF020EE02F0A551D926A651DA22A6
:101B58009DC0DEFF9EC0DDFF20EE01F0A551D92615
:101B6800A651DA229FC0DFFFA5C0D9FFA6C0DAFFC1
:101B7800400EDF16A5C0D9FFA6C0DAFF000EDB862F
:101B8800A5C0D9FFA6C0DAFF000EDB8E9C51D8B4E1
:101B9800D0EF0DF0D2EF0DF0F1EF0DF0A451020DE2
:101BA8006E0EF324D96E000EF420DA6EDECFA0F0AC
:101BB800DDCFA1F0040EA019A26FA151A36FA4510B
:101BC800020D6E0EF324D96E000EF420DA6EA2C058
:101BD800DEFFA3C0DDFF0EEF0EF0A451020D740E60
:101BE800F324D96E000EF420DA6EDECFA0F0DDCF3C
:101BF800A1F0040EA019A26FA151A36FA451020D68
:101C0800740EF324D96E000EF420DA6EA2C0DEFF43
:101C1800A3C0DDFFA5C09CF0A6C09DF012006D9882
:101C280000016BBF1AEF0EF01CEF0EF061EF0EF023
:101C380063AF21EF0EF023EF0EF035EF0EF0020E3A
:101C4800446E3A50D8A42BEF0EF02DEF0EF02FEF84
:101C58000EF09EEC14F0000E3C6E000E3D6EB3EFDD
:101C68000EF020EE01F03150D9263250DA22200E43
:101C7800DF6E20EE02F03150D9263250DA22300ED3
:101C8800DE6E040EDD6E31C0D9FF32C0DAFF0C0EF5
:101C9800DF6E31C0D9FF32C0DAFF000EDB8E6EC0B6
:101CA800D9FF6FC0DAFF040EDF6E6EC0D9FF6FC0B8
:101CB800DAFF000EDB8EB3EF0EF0040130AF67EFF2
:101CC8000EF069EF0EF085EF0EF0010E446E3B50FA
:101CD800D8A471EF0EF073EF0EF075EF0EF09EECD6
:101CE80014F0000E3C6E000E3D6E3E50D8A47FEFFF
:101CF8000EF081EF0EF0B3EF0EF093EC12F0B3EFAD
:101D08000EF0020E446E20EE01F03150D92632500A
:101D1800DA22200EDF6E20EE02F03150D926325042
:101D2800DA22300EDE6E040EDD6E31C0D9FF32C00D
:101D3800DAFF040EDF6E31C0D9FF32C0DAFF000EC1
:101D4800DB8E000E3C6E000E3D6E3E50D8A4AFEF09
:101D58000EF0B1EF0EF0B3EF0EF081EF0EF01200BF
:101D6800096E0150D8B4BBEF0EF0BDEF0EF0CBEF0B
:101D78000EF00950020D6E0EF324D96E000EF420F9
:101D8800DA6EDECF0AF0DDCF0BF0D7EF0EF0095098
:101D9800020D740EF324D96E000EF420DA6EDECF35
:101DA8000AF0DDCF0BF00A500B10D8A4DEEF0EF0CE
:101DB800E0EF0EF0E6EF0EF0000E016E000E026E80
:101DC80052EF0FF020EE02F00A50D9260B50DA221B
:101DD80002C0DEFF03C0DDFF20EE01F00A50D92665
:101DE8000B50DA2204C0DFFF0AC0D9FF0BC0DAFFAC
:101DF800400EDF160AC0D9FF0BC0DAFF000EDB86E3
:101E08000AC0D9FF0BC0DAFF000EDB8E0150D8B430
:101E180010EF0FF012EF0FF031EF0FF00950020D35
:101E28006E0EF324D96E000EF420DA6EDECF05F0C4
:101E3800DDCF06F0040E0518076E0650086E09502F
:101E4800020D6E0EF324D96E000EF420DA6E07C070
:101E5800DEFF08C0DDFF4EEF0FF00950020D740ED3
:101E6800F324D96E000EF420DA6EDECF05F0DDCF54
:101E780006F0040E0518076E0650086E0950020D8C
:101E8800740EF324D96E000EF420DA6E07C0DEFF5C
:101E980008C0DDFF0AC001F00BC002F01200A8C0A4
:101EA800A3F0A9C0A4F0000E0001A66F0A0EA56F4A
:101EB8004FEC16F00001A351AB6F000E9F6F0A0E96
:101EC8009E6FA8C09CF0A9C09DF0DAEC15F09CC0EC
:101ED800A3F09DC0A4F0000E0001A66F0A0EA56F26
:101EE8004FEC16F00001A351AC6F000E9F6F640E0B
:101EF8009E6FA8C09CF0A9C09DF0DAEC15F09CC0BC
:101F0800A3F09DC0A4F0000E0001A66F0A0EA56FF5
:101F18004FEC16F00001A351AD6FA95109E1640E11
:101F2800A85DD8A09AEF0FF09CEF0FF0B0EF0FF07C
:101F3800040E896E010EAD25F66EF76A080EF722BB
:101F48000800F5CF8CFF2F0E0001AA6FBF0EE82EF8
:101F5800FED7AA2FFCD700D00001A95109E10A0E2B
:101F6800A85DD8A0BAEF0FF0BCEF0FF0D0EF0FF0DC
:101F7800020E896E010EAC25F66EF76A080EF7227E
:101F88000800F5CF8CFF2F0E0001AA6FBF0EE82EB8
:101F9800FED7AA2FFCD700D0010E896E010E0001D2
:101FA800AB25F66EF76A080EF7220800F5CF8CFF0E
:101FB8002F0E0001AA6FBF0EE82EFED7AA2FFCD75E
:101FC80000D0120004013039E832030B0009D8B4FC
:101FD800F0EF0FF0F2EF0FF03FEF10F078EF10F0A6
:101FE80000016B8F080E466E78EF10F0CCEC0AF00B
:101FF80078EF10F00CEC13F078EF10F0520E0001AF
:10200800686F000E696F6B81010E6C6F6B8F78EFD4
:1020180010F001EC11F078EF10F05CEC04F078EFC0
:1020280010F04F0E34250001686F696B000E6923AC
:102038006B81010E6C6F6B8F78EF10F000016B8F66
:102048004F0E04013425D96EDA6A000EDA2232C442
:10205800DFFF78EF10F0000E0E6E020E0D6E000E10
:102068000F6E000E106E000E126E000E116E96ECC2
:1020780015F078EF10F031511C6E1D6A1D50000AE2
:10208800D8B449EF10F078EF10F01C50000AD8B41B
:102098000DEF10F0010AD8B411EF10F0020AD8B40D
:1020A80011EF10F0060AD8B4F4EF0FF0030AD8B411
:1020B800FAEF0FF0010AD8B42FEF10F00F0AD8B4D6
:1020C80002EF10F0010AD8B4FEEF0FF0030AD8B4FB
:1020D80015EF10F0010AD8B422EF10F0070AD8B4AF
:1020E80078EF10F078EF10F01200200E016E00016A
:1020F8006D5107E1200E6C5DD8B085EF10F087EFC9
:1021080010F09FEF10F06CC001F04550D8A48FEF8D
:1021180010F091EF10F095EF10F0010E456E9FEF63
:1021280010F04504D8A49BEF10F09DEF10F09FEF3E
:1021380010F0020E456E01506C5F000E6D5B20EED4
:1021480001F06E51D9266F51DA2201C0DFFF500E1F
:102158002F6E040E306E6BB1B4EF10F0B6EF10F0C6
:10216800F8EF10F0D3EF10F068C0F6FF69C0F7FF82
:10217800F86A2FC0D9FF30C0DAFF070EF76403D022
:102188000800F55005D0F6CFE1FFF7CFE2FFE750A2
:10219800DF6E0001684B692B2F4A302A0106015077
:1021A800D8A4D9EF10F0DBEF10F0B8EF10F000EF83
:1021B80011F068C0F6FF69C0F7FFF86A2FC0D9FFB1
:1021C80030C0DAFF070EF76403D00800F55005D0D9
:1021D800F6CFE1FFF7CFE2FFE750DF6E0001684B73
:1021E800692B2F4A302A01060150D8A4FEEF10F0BF
:1021F80000EF11F0DDEF10F01200000E0401506F37
:10220800000E516F5EEF11F000016B8F4304D8A4EC
:1022180010EF11F012EF11F078EF11F00401508374
:1022280078EF11F000016B8F78EF11F000016B8FE0
:10223800040134BF22EF11F024EF11F035EF11F053
:1022480034510F0B016E0150020D740EF324D96E38
:10225800000EF420DA6EDECF03F0DDCF04F044EF99
:1022680011F034510F0B016E0150020D6E0EF32464
:10227800D96E000EF420DA6EDECF03F0DDCF04F065
:1022880003C0D9FF04C0DAFFDFAE4DEF11F04FEF06
:1022980011F078EF11F003C0D9FF04C0DAFFDFA412
:1022A80058EF11F05AEF11F078EF11F0010E506F5E
:1022B80078EF11F030511F0B016E026A0250000ACC
:1022C800D8B469EF11F078EF11F00150000AD8B4D2
:1022D80008EF11F0010AD8B416EF11F0030AD8B4C8
:1022E8001AEF11F078EF11F000016BAF7EEF11F0EB
:1022F80080EF11F087EF11F0500E686F040E696FD0
:102308006B81020E6C6F1200040130511F0BE8063E
:10231800D8B491EF11F093EF11F095EF11F00DEFA4
:1023280012F03039E832030BE806D8B49EEF11F00A
:10233800A0EF11F0A2EF11F00DEF12F03451D8B464
:10234800A8EF11F0AAEF11F0ECEF11F03405D8B4B2
:10235800B0EF11F0B2EF11F0ECEF11F00DEF12F059
:10236800940E0001686F000E696F000E6D6F080E05
:102378006C6F6B816B8F0DEF12F0940E0001686F1C
:10238800000E696F6B8F0DEF12F036C464F037C41E
:1023980065F0480E0001606F000E616F000E666FF9
:1023A800000E676F638F0DEF12F0480E0001686F23
:1023B800000E696F000E6D6F070E6C6FC10E6B6FAC
:1023C8000DEF12F032C437F000016B8F0DEF12F0F1
:1023D8003151016E026A0250000AD8B4F6EF11F0CA
:1023E8000DEF12F00150000AD8B4B4EF11F0010A51
:1023F800D8B4C1EF11F0210AD8B4C9EF11F0010A1D
:10240800D8B4D9EF11F0030AD8B4E6EF11F00DEF04
:1024180012F012006EC0D9FF6FC0DAFF0001000E83
:10242800DFBC010E026E040E6E196E6F6F516F6F76
:10243800080E4618D8A423EF12F025EF12F037EF54
:1024480012F0040132517F0B6E6E6E50D8B42FEF2C
:1024580012F031EF12F035EF12F0100E466E37EF32
:1024680012F0040E466E4404D8A43DEF12F03FEF7C
:1024780012F087EF12F0000120EE02F06E51D9261B
:102488006F51DA22500EDE6E040EDD6E79EC10F01C
:10249800020E4518D8A453EF12F055EF12F063EF6F
:1024A80012F06EC0D9FF6FC0DAFF040EDF6E6EC087
:1024B800D9FF6FC0DAFF000EDB8E92EF12F00250E8
:1024C800D8A469EF12F06BEF12F079EF12F06EC03A
:1024D800D9FF6FC0DAFF480EDF6E6EC0D9FF6FC03C
:1024E800DAFF000EDB8E92EF12F06EC0D9FF6FC0DC
:1024F800DAFF080EDF6E6EC0D9FF6FC0DAFF000E7C
:10250800DB8E92EF12F0000163AF8DEF12F08FEFC8
:1025180012F090EF12F0639F000E446E12003D50CF
:10252800D8A499EF12F09BEF12F00BEF13F0010E05
:102538003D6E3C50D8A4A3EF12F0A5EF12F00BEFBC
:1025480013F0010E3C6E020E4418D8A4AEEF12F040
:10255800B0EF12F0C7EF12F0000120EE01F06E515B
:10256800D9266F51DA22000EDF6E6EC0D9FF6FC018
:10257800DAFF480EDF6E6EC0D9FF6FC0DAFF000EBB
:10258800DB8E0BEF13F04404D8A4CDEF12F0CFEF9D
:1025980012F00BEF13F0000E406E20EE01F03350F6
:1025A800D9263450DA22200EDF6E20EE02F03350A6
:1025B800D9263450DA22300EDE6E040EDD6E33C0BA
:1025C800D9FF34C0DAFF040EDF6E33C0D9FF34C040
:1025D800DAFF000EDB8E010E406E20EE01F0315066
:1025E800D9263250DA22200EDF6E20EE02F031506A
:1025F800D9263250DA22300EDE6E040EDD6E31C07E
:10260800D9FF32C0DAFF800EDF6E0BEF13F0120035
:1026180000016B8F710E016E0F0E026E000E046EBC
:10262800000E036E000E066E020E056E11EC0AF027
:10263800000E016E040E026E000E046E000E036E94
:10264800000E066E300E056E11EC0AF06D8C000E51
:10265800156E870E1524D96EDA6A000EDA22000E7E
:10266800DF6E840E1524D96EDA6A000EDA22000EA7
:10267800DF6E152A020E156444EF13F046EF13F0CF
:102688002DEF13F04F0E016E000E026E000E046E59
:10269800000E036E000E066E020E056E11EC0AF0B7
:1026A8006D9C080E00016E6F040E6F6F000E336E86
:1026B800040E346E33C031F034C032F032C452F0FC
:1026C8005250D8A46AEF13F06CEF13F070EF13F0C8
:1026D800100E466E80EF13F0000E0E6E010E0D6E9A
:1026E800520E0F6E000E106E000E126E010E116E5D
:1026F80096EC15F0200E466E12000600E1CF21F090
:10270800E2CF22F0D9CF23F0DACF24F0F3CF25F0AF
:10271800F4CF26F0F6CF27F0F7CF28F0F8CF29F03E
:10272800F5CF2AF0C0EC17F0F2A49DEF13F09FEF5D
:1027380013F0D0EF13F0F2943D0ED66E4750D8B494
:10274800A8EF13F0AAEF13F0D0EF13F0354A362AAA
:102758008BB4B1EF13F0B4EF13F0010EB5EF13F033
:10276800000EFF0A206E204620468B502018FB0BD7
:1027780020188B6E365009E1C80E355CD8A0C7EF1B
:1027880013F0C9EF13F0D0EF13F0000E476E000EF0
:10279800366E000E356E8B942AC0F5FF29C0F8FFFF
:1027A80028C0F7FF27C0F6FF26C0F4FF25C0F3FFB7
:1027B80024C0DAFF23C0D9FF22C0E2FF21C0E1FF15
:1027C80053921100000E0001926F8C518D11D8B4F4
:1027D800F0EF13F0F2EF13F0FDEF13F08CC0D9FF18
:1027E8008DC0DAFFDFBEFBEF13F0FDEF13F03FEF14
:1027F80014F020EE01F08C51D9268D51DA22A9511E
:10280800DE5CD8B00AEF14F00CEF14F014EF14F0FB
:1028180020EE01F08C51D9268D51DA22DF50A96FB4
:10282800000E926F27EF14F0400E9225D96EDA6AE7
:10283800050EDA229251A725E16E000EA821E26E5C
:10284800DFCFE7FF922BA951925DD8A02EEF14F0AD
:1028580030EF14F018EF14F0000E9C6F400E9D6FCF
:10286800050E9E6F400E9F6F020E72EC0DF09CC01D
:102878008CF09DC08DF00001925112002D0E3F6E1C
:1028880051C01EF0FD0E1E16D8A44DEF14F04FEFE8
:1028980014F091EF14F051C01EF0D8901E323F0E84
:1028A8001E161E50040D000EF324336E040EF42081
:1028B800346E33C031F034C032F0040E3118316E4A
:1028C8003250326E33C0D9FF34C0DAFFDF30E8321D
:1028D8000F0B0D0AD8A473EF14F075EF14F08DEFF9
:1028E80014F0300E016E040E026E20EE02F033502A
:1028F800D9263450DA22DECF03F0DDCF04F0000E03
:10290800066E080E056EE4EC16F04EEC15F09DEF21
:1029180014F015EC16F09DEF14F05150FD0B040A5D
:10292800D8A499EF14F09BEF14F09DEF14F00EEC7F
:1029380012F01200000E3B6E000E3A6E020E4418A2
:10294800D8A4A9EF14F0ABEF14F0CBEF14F020EEFD
:1029580001F03150D9263250DA22200EDF6E20EEF7
:1029680002F03150D9263250DA22500EDE6E040EB3
:10297800DD6E31C0D9FF32C0DAFF480EDF6E31C0DC
:10298800D9FF32C0DAFF000EDB8EF7EF14F000013A
:102998006C510401365D00016D5104013759D8B0FE
:1029A800D8EF14F0DAEF14F0DEEF14F036C46CF060
:1029B80037C46DF079EC10F0000120EE02F06E5192
:1029C800D9266F51DA22500EDE6E040EDD6E6EC00F
:1029D800D9FF6FC0DAFF480EDF6E6EC0D9FF6FC037
:1029E800DAFF000EDB8E1200066E000E076E040E74
:1029F800086E0150026E036AD890023603360650FC
:102A0800046E056AD89004360536D8900436053623
:102A18000250042603500522D89004360536D89073
:102A280004360536045007260550082207C0D9FF8A
:102A380008C0DAFFDF9E0150D8A425EF15F027EF74
:102A480015F035EF15F00650020D740EF324D96E0B
:102A5800000EF420DA6E07C0DEFF08C0DDFF41EF8C
:102A680015F00650020D6E0EF324D96E000EF420F8
:102A7800DA6E07C0DEFF08C0DDFF07C0D9FF08C057
:102A8800DAFFDF9C20EE04F00750D9260850DA223E
:102A9800DF8C1200000E456E000E3E6E000E3B6E7F
:102AA800000E3A6E000E406E000E446E6EC0D9FFE6
:102AB8006FC0DAFF7F0EDF16040E00016E196E6F0D
:102AC8006F516F6F6EC0D9FF6FC0DAFF7F0EDF16D0
:102AD800040E6E196E6F6F516F6F31C0D9FF32C01F
:102AE800DAFF7F0EDF16000E6B6F000E6D6F000EA3
:102AF8006C6F000E636F000E656F000E646FE6EC7E
:102B08000FF0000E0E6E030E0D6E000E0F6E000E0F
:102B1800106E000E126E000E116E96EC15F013EC8E
:102B28000EF01200A0EF15F082EC16F0D9EF15F0B8
:102B380088EC11F0D9EF15F00DC013F00EC014F0A9
:102B48001450000AD8B4AFEF15F07F0AD8B4D2EF0A
:102B580015F0D9EF15F01350010AD8B498EF15F015
:102B6800030AD8B4D9EF15F0010AD8B49CEF15F0D0
:102B7800060AD8B4D9EF15F0770AD8B4D9EF15F00A
:102B8800010AD8B4D9EF15F0070AD8B4D9EF15F06F
:102B9800010AD8B4D9EF15F0D9EF15F01350FF0A90
:102BA800D8B4D9EF15F0D9EF15F01200000E0001D6
:102BB800A26F000EA16F9E519F11D8B4E6EF15F0D9
:102BC800E8EF15F010EF16F0010EA06FF0EF15F01A
:102BD800D8909E379F37A02B9FAFF5EF15F0F7EFF2
:102BE80015F0ECEF15F0D890A137A2379E519C5DF7
:102BF8009F519D59D8A003EF16F005EF16F00AEF84
:102C080016F09E519C5F9F519D5BA181D8909F3388
:102C18009E33A02FF7EF15F0A1C09CF0A2C09DF045
:102C28001200020E4418D8A41CEF16F01EEF16F07E
:102C380022EF16F0D0EC0CF04EEF16F0000E446EBA
:102C48004050D8A42AEF16F02CEF16F04CEF16F0EF
:102C580020EE01F03150D9263250DA22200EDF6EF4
:102C680020EE02F03150D9263250DA22300EDE6ED4
:102C7800040EDD6E31C0D9FF32C0DAFF0C0EDF6EF4
:102C880031C0D9FF32C0DAFF000EDB8E4EEF16F0EE
:102C9800000E406E12000001A551A611D8B457EFDE
:102CA80016F059EF16F07DEF16F0010EA76F61EFE1
:102CB80016F0D890A537A637A72BA6AF66EF16F063
:102CC80068EF16F05DEF16F0A551A35DA651A45963
:102CD800D8A071EF16F073EF16F077EF16F0A55144
:102CE800A35FA651A45BD890A633A533A72F68EF9E
:102CF80016F0A3C0A3F0A4C0A4F01200000E486E02
:102D08004B0E496E000E4A6E000E4B6E000E4C6E56
:102D1800000E4D6E080E4E6E000E0001926F1A0ED8
:102D2800096E010E0CEC17F01E0E096E020E0CEC6B
:102D380017F0000E016E400E026E050E036E400E77
:102D4800046E020EB4EC0EF001C08CF002C08DF0DF
:102D5800000E00018A6F000E8B6F000E386E120095
:102D680070A0B9EF16F0BBEF16F0E2EF16F033C023
:102D7800D9FF34C0DAFF800EDE18D8A4C6EF16F0EB
:102D8800C8EF16F0E1EF16F06EC0D9FF6FC0DAFF9A
:102D9800840EDE18D8A4D3EF16F0D5EF16F0E1EFC5
:102DA80016F033C0D9FF34C0DAFF0C0EDF6E33C023
:102DB800D9FF34C0DAFF000EDB8E7090689A1200DB
:102DC80003C009F004C00AF001C007F002C008F00F
:102DD800FEEF16F009C0D9FF0AC0DAFFDF500B6E0C
:102DE800094A0A2A07C0D9FF08C0DAFF0BC0DFFF6B
:102DF800074A082A0506D8A00606052806E1062877
:102E0800D8A409EF17F00BEF17F0EEEF16F0120049
:102E18000C6E09A412EF17F014EF17F019EF17F062
:102E2800000E016E0C50F8EC14F009A21EEF17F01A
:102E380020EF17F025EF17F0010E016E0C50F8EC9B
:102E480014F0700E0C240A6E0B6A0F0E0B220AC0C7
:102E5800D9FF0BC0DAFF09C0DFFF12004650D8A423
:102E680038EF17F03AEF17F052EF17F0000E6D6ECB
:102E7800000E696E160E6F6E9F0E6B6E7B0E696E7E
:102E8800A28AA08A49EF17F06D866DA64EEF17F05B
:102E980050EF17F048EF17F0010E466E1200000EC3
:102EA800426E000E0E6E740E0D6E000E0F6E000E4A
:102EB800106E000E126E000E116E96EC15F06D92EB
:102EC800699468EF17F0689468B46DEF17F06FEFC6
:102ED80017F067EF17F0000E396E12001F0E4664E8
:102EE80078EF17F07AEF17F087EF17F06DB27FEFF2
:102EF80017F081EF17F087EF17F0000E00019D6FB4
:102F08009C698CEF17F0000E00019D6F000E9C6FFE
:102F18009C51120001EE52F00A0EEE6AE806FDE13D
:102F280000EE60F03C0EEE6AE806FDE100EE2BF0E4
:102F3800280EEE6AE806FDE153905392000EF86EF3
:102F480000010AEF06F0010E2B26000E2C222D227E
:102F58002E224250D8A4B3EF17F0B5EF17F0BFEF09
:102F680017F0392A3950D8A4BCEF17F0BEEF17F084
:102F7800BFEF17F039681200F2ACC5EF17F0C7EFD2
:102F880017F0D7EF17F0A0AACCEF17F0CEEF17F095
:102F9800D7EF17F0A1AAD3EF17F0D5EF17F0D7EFB7
:102FA80017F073EC07F01200A09A3850D8A4DFEF9E
:102FB80017F0E1EF17F0ECEF17F09CC081F09DC01F
:102FC80082F09EC091F0010E0001906F010E386EE4
:102FD800A08A1200698468986D82010E426E000E04
:102FE800396E000E0E6E750E0D6E000E0F6E000E11
:102FF800106E000E126E000E116E96EC15F0120097
:1030080000019C519E03F3CFA0F0F4CFA1F09C5196
:103018009F03F350A1279D519E03F350A127A0C001
:103028009CF0A1C09DF01200F28EF28C86EC0BF0A1
:1030380032EC17F01200C70ED56E3D0ED66EF28A2E
:04304800F2941200EC
:020000040020DA
:08000000FFFFFFFFFFFFFFFF00
:020000040030CA
:0E000000210E3F1EFF8181FF0FC00FE00F4059
:00000001FF
